{
  "_format": "hh-sol-artifact-1",
  "contractName": "FileMetadataRegistry",
  "sourceName": "contracts/FileMetadataRegistry.sol",
  "abi": [
    {
      "inputs": [],
      "stateMutability": "nonpayable",
      "type": "constructor"
    },
    {
      "inputs": [
        {
          "internalType": "bytes32",
          "name": "userId",
          "type": "bytes32"
        },
        {
          "internalType": "string",
          "name": "key",
          "type": "string"
        }
      ],
      "name": "deleteUserFileByKey",
      "outputs": [],
      "stateMutability": "nonpayable",
      "type": "function"
    },
    {
      "inputs": [
        {
          "internalType": "bytes32",
          "name": "userId",
          "type": "bytes32"
        },
        {
          "internalType": "string",
          "name": "key",
          "type": "string"
        }
      ],
      "name": "getFileByKey",
      "outputs": [
        {
          "components": [
            {
              "internalType": "string",
              "name": "key",
              "type": "string"
            },
            {
              "internalType": "string",
              "name": "checksum",
              "type": "string"
            },
            {
              "internalType": "string",
              "name": "name",
              "type": "string"
            },
            {
              "internalType": "uint256",
              "name": "size",
              "type": "uint256"
            },
            {
              "internalType": "bytes32",
              "name": "userId",
              "type": "bytes32"
            },
            {
              "internalType": "uint256",
              "name": "timestamp",
              "type": "uint256"
            }
          ],
          "internalType": "struct FileMetadataRegistry.FileMetadata",
          "name": "",
          "type": "tuple"
        }
      ],
      "stateMutability": "view",
      "type": "function"
    },
    {
      "inputs": [
        {
          "internalType": "bytes32",
          "name": "userId",
          "type": "bytes32"
        }
      ],
      "name": "getFilesByUser",
      "outputs": [
        {
          "components": [
            {
              "internalType": "string",
              "name": "key",
              "type": "string"
            },
            {
              "internalType": "string",
              "name": "checksum",
              "type": "string"
            },
            {
              "internalType": "string",
              "name": "name",
              "type": "string"
            },
            {
              "internalType": "uint256",
              "name": "size",
              "type": "uint256"
            },
            {
              "internalType": "bytes32",
              "name": "userId",
              "type": "bytes32"
            },
            {
              "internalType": "uint256",
              "name": "timestamp",
              "type": "uint256"
            }
          ],
          "internalType": "struct FileMetadataRegistry.FileMetadata[]",
          "name": "",
          "type": "tuple[]"
        }
      ],
      "stateMutability": "view",
      "type": "function"
    },
    {
      "inputs": [],
      "name": "owner",
      "outputs": [
        {
          "internalType": "address",
          "name": "",
          "type": "address"
        }
      ],
      "stateMutability": "view",
      "type": "function"
    },
    {
      "inputs": [
        {
          "internalType": "string",
          "name": "key",
          "type": "string"
        },
        {
          "internalType": "string",
          "name": "checksum",
          "type": "string"
        },
        {
          "internalType": "string",
          "name": "name",
          "type": "string"
        },
        {
          "internalType": "uint256",
          "name": "size",
          "type": "uint256"
        },
        {
          "internalType": "bytes32",
          "name": "userId",
          "type": "bytes32"
        }
      ],
      "name": "registerFile",
      "outputs": [],
      "stateMutability": "nonpayable",
      "type": "function"
    },
    {
      "inputs": [
        {
          "internalType": "bytes32",
          "name": "",
          "type": "bytes32"
        },
        {
          "internalType": "uint256",
          "name": "",
          "type": "uint256"
        }
      ],
      "name": "userFiles",
      "outputs": [
        {
          "internalType": "string",
          "name": "key",
          "type": "string"
        },
        {
          "internalType": "string",
          "name": "checksum",
          "type": "string"
        },
        {
          "internalType": "string",
          "name": "name",
          "type": "string"
        },
        {
          "internalType": "uint256",
          "name": "size",
          "type": "uint256"
        },
        {
          "internalType": "bytes32",
          "name": "userId",
          "type": "bytes32"
        },
        {
          "internalType": "uint256",
          "name": "timestamp",
          "type": "uint256"
        }
      ],
      "stateMutability": "view",
      "type": "function"
    }
  ],
  "bytecode": "0x60a060405234801561001057600080fd5b503373ffffffffffffffffffffffffffffffffffffffff1660808173ffffffffffffffffffffffffffffffffffffffff1681525050608051611b46610067600039600081816108a101526108c50152611b466000f3fe608060405234801561001057600080fd5b50600436106100625760003560e01c8063324736f2146100675780634c9be5b41461009757806361c00f6e146100c75780638da5cb5b146100fc57806391c97f5f1461011a5780639641ae8e14610136575b600080fd5b610081600480360381019061007c9190610d5b565b610152565b60405161008e9190610f99565b60405180910390f35b6100b160048036038101906100ac91906110f0565b610397565b6040516100be91906111e3565b60405180910390f35b6100e160048036038101906100dc9190611231565b6106ae565b6040516100f3969594939291906112d9565b60405180910390f35b61010461089f565b6040516101119190611390565b60405180910390f35b610134600480360381019061012f91906110f0565b6108c3565b005b610150600480360381019061014b91906113ab565b610ba4565b005b6060600080838152602001908152602001600020805480602002602001604051908101604052809291908181526020016000905b8282101561038c57838290600052602060002090600602016040518060c00160405290816000820180546101b9906114a9565b80601f01602080910402602001604051908101604052809291908181526020018280546101e5906114a9565b80156102325780601f1061020757610100808354040283529160200191610232565b820191906000526020600020905b81548152906001019060200180831161021557829003601f168201915b5050505050815260200160018201805461024b906114a9565b80601f0160208091040260200160405190810160405280929190818152602001828054610277906114a9565b80156102c45780601f10610299576101008083540402835291602001916102c4565b820191906000526020600020905b8154815290600101906020018083116102a757829003601f168201915b505050505081526020016002820180546102dd906114a9565b80601f0160208091040260200160405190810160405280929190818152602001828054610309906114a9565b80156103565780601f1061032b57610100808354040283529160200191610356565b820191906000526020600020905b81548152906001019060200180831161033957829003601f168201915b50505050508152602001600382015481526020016004820154815260200160058201548152505081526020019060010190610186565b505050509050919050565b61039f610c7b565b60005b6000808581526020019081526020016000208054905081101561066c57826040516020016103d09190611516565b60405160208183030381529060405280519060200120600080868152602001908152602001600020828154811061040a5761040961152d565b5b906000526020600020906006020160000160405160200161042b91906115f4565b604051602081830303815290604052805190602001200361065f57600080858152602001908152602001600020818154811061046a5761046961152d565b5b90600052602060002090600602016040518060c0016040529081600082018054610493906114a9565b80601f01602080910402602001604051908101604052809291908181526020018280546104bf906114a9565b801561050c5780601f106104e15761010080835404028352916020019161050c565b820191906000526020600020905b8154815290600101906020018083116104ef57829003601f168201915b50505050508152602001600182018054610525906114a9565b80601f0160208091040260200160405190810160405280929190818152602001828054610551906114a9565b801561059e5780601f106105735761010080835404028352916020019161059e565b820191906000526020600020905b81548152906001019060200180831161058157829003601f168201915b505050505081526020016002820180546105b7906114a9565b80601f01602080910402602001604051908101604052809291908181526020018280546105e3906114a9565b80156106305780601f1061060557610100808354040283529160200191610630565b820191906000526020600020905b81548152906001019060200180831161061357829003601f168201915b5050505050815260200160038201548152602001600482015481526020016005820154815250509150506106a8565b80806001019150506103a2565b506040517f08c379a000000000000000000000000000000000000000000000000000000000815260040161069f90611657565b60405180910390fd5b92915050565b600060205281600052604060002081815481106106ca57600080fd5b9060005260206000209060060201600091509150508060000180546106ee906114a9565b80601f016020809104026020016040519081016040528092919081815260200182805461071a906114a9565b80156107675780601f1061073c57610100808354040283529160200191610767565b820191906000526020600020905b81548152906001019060200180831161074a57829003601f168201915b50505050509080600101805461077c906114a9565b80601f01602080910402602001604051908101604052809291908181526020018280546107a8906114a9565b80156107f55780601f106107ca576101008083540402835291602001916107f5565b820191906000526020600020905b8154815290600101906020018083116107d857829003601f168201915b50505050509080600201805461080a906114a9565b80601f0160208091040260200160405190810160405280929190818152602001828054610836906114a9565b80156108835780601f1061085857610100808354040283529160200191610883565b820191906000526020600020905b81548152906001019060200180831161086657829003601f168201915b5050505050908060030154908060040154908060050154905086565b7f000000000000000000000000000000000000000000000000000000000000000081565b7f000000000000000000000000000000000000000000000000000000000000000073ffffffffffffffffffffffffffffffffffffffff163373ffffffffffffffffffffffffffffffffffffffff1614610951576040517f08c379a0000000000000000000000000000000000000000000000000000000008152600401610948906116c3565b60405180910390fd5b6000805b60008085815260200190815260200160002080549050811015610a0e57826040516020016109839190611516565b6040516020818303038152906040528051906020012060008086815260200190815260200160002082815481106109bd576109bc61152d565b5b90600052602060002090600602016000016040516020016109de91906115f4565b6040516020818303038152906040528051906020012003610a0157809150610a0e565b8080600101915050610955565b5060008190505b600160008086815260200190815260200160002080549050610a379190611712565b811015610b1b57600080858152602001908152602001600020600182610a5d9190611746565b81548110610a6e57610a6d61152d565b5b90600052602060002090600602016000808681526020019081526020016000208281548110610aa057610a9f61152d565b5b906000526020600020906006020160008201816000019081610ac29190611927565b5060018201816001019081610ad79190611927565b5060028201816002019081610aec9190611927565b506003820154816003015560048201548160040155600582015481600501559050508080600101915050610a15565b50600080848152602001908152602001600020805480610b3e57610b3d611a0f565b5b600190038181906000526020600020906006020160008082016000610b639190610cb4565b600182016000610b739190610cb4565b600282016000610b839190610cb4565b60038201600090556004820160009055600582016000905550509055505050565b60006040518060c001604052808781526020018681526020018581526020018481526020018381526020014281525090506000808381526020019081526020016000208190806001815401808255809150506001900390600052602060002090600602016000909190919091506000820151816000019081610c269190611a3e565b506020820151816001019081610c3c9190611a3e565b506040820151816002019081610c529190611a3e565b50606082015181600301556080820151816004015560a082015181600501555050505050505050565b6040518060c001604052806060815260200160608152602001606081526020016000815260200160008019168152602001600081525090565b508054610cc0906114a9565b6000825580601f10610cd25750610cf1565b601f016020900490600052602060002090810190610cf09190610cf4565b5b50565b5b80821115610d0d576000816000905550600101610cf5565b5090565b6000604051905090565b600080fd5b600080fd5b6000819050919050565b610d3881610d25565b8114610d4357600080fd5b50565b600081359050610d5581610d2f565b92915050565b600060208284031215610d7157610d70610d1b565b5b6000610d7f84828501610d46565b91505092915050565b600081519050919050565b600082825260208201905092915050565b6000819050602082019050919050565b600081519050919050565b600082825260208201905092915050565b60005b83811015610dee578082015181840152602081019050610dd3565b60008484015250505050565b6000601f19601f8301169050919050565b6000610e1682610db4565b610e208185610dbf565b9350610e30818560208601610dd0565b610e3981610dfa565b840191505092915050565b6000819050919050565b610e5781610e44565b82525050565b610e6681610d25565b82525050565b600060c0830160008301518482036000860152610e898282610e0b565b91505060208301518482036020860152610ea38282610e0b565b91505060408301518482036040860152610ebd8282610e0b565b9150506060830151610ed26060860182610e4e565b506080830151610ee56080860182610e5d565b5060a0830151610ef860a0860182610e4e565b508091505092915050565b6000610f0f8383610e6c565b905092915050565b6000602082019050919050565b6000610f2f82610d88565b610f398185610d93565b935083602082028501610f4b85610da4565b8060005b85811015610f875784840389528151610f688582610f03565b9450610f7383610f17565b925060208a01995050600181019050610f4f565b50829750879550505050505092915050565b60006020820190508181036000830152610fb38184610f24565b905092915050565b600080fd5b600080fd5b7f4e487b7100000000000000000000000000000000000000000000000000000000600052604160045260246000fd5b610ffd82610dfa565b810181811067ffffffffffffffff8211171561101c5761101b610fc5565b5b80604052505050565b600061102f610d11565b905061103b8282610ff4565b919050565b600067ffffffffffffffff82111561105b5761105a610fc5565b5b61106482610dfa565b9050602081019050919050565b82818337600083830152505050565b600061109361108e84611040565b611025565b9050828152602081018484840111156110af576110ae610fc0565b5b6110ba848285611071565b509392505050565b600082601f8301126110d7576110d6610fbb565b5b81356110e7848260208601611080565b91505092915050565b6000806040838503121561110757611106610d1b565b5b600061111585828601610d46565b925050602083013567ffffffffffffffff81111561113657611135610d20565b5b611142858286016110c2565b9150509250929050565b600060c08301600083015184820360008601526111698282610e0b565b915050602083015184820360208601526111838282610e0b565b9150506040830151848203604086015261119d8282610e0b565b91505060608301516111b26060860182610e4e565b5060808301516111c56080860182610e5d565b5060a08301516111d860a0860182610e4e565b508091505092915050565b600060208201905081810360008301526111fd818461114c565b905092915050565b61120e81610e44565b811461121957600080fd5b50565b60008135905061122b81611205565b92915050565b6000806040838503121561124857611247610d1b565b5b600061125685828601610d46565b92505060206112678582860161121c565b9150509250929050565b600082825260208201905092915050565b600061128d82610db4565b6112978185611271565b93506112a7818560208601610dd0565b6112b081610dfa565b840191505092915050565b6112c481610e44565b82525050565b6112d381610d25565b82525050565b600060c08201905081810360008301526112f38189611282565b905081810360208301526113078188611282565b9050818103604083015261131b8187611282565b905061132a60608301866112bb565b61133760808301856112ca565b61134460a08301846112bb565b979650505050505050565b600073ffffffffffffffffffffffffffffffffffffffff82169050919050565b600061137a8261134f565b9050919050565b61138a8161136f565b82525050565b60006020820190506113a56000830184611381565b92915050565b600080600080600060a086880312156113c7576113c6610d1b565b5b600086013567ffffffffffffffff8111156113e5576113e4610d20565b5b6113f1888289016110c2565b955050602086013567ffffffffffffffff81111561141257611411610d20565b5b61141e888289016110c2565b945050604086013567ffffffffffffffff81111561143f5761143e610d20565b5b61144b888289016110c2565b935050606061145c8882890161121c565b925050608061146d88828901610d46565b9150509295509295909350565b7f4e487b7100000000000000000000000000000000000000000000000000000000600052602260045260246000fd5b600060028204905060018216806114c157607f821691505b6020821081036114d4576114d361147a565b5b50919050565b600081905092915050565b60006114f082610db4565b6114fa81856114da565b935061150a818560208601610dd0565b80840191505092915050565b600061152282846114e5565b915081905092915050565b7f4e487b7100000000000000000000000000000000000000000000000000000000600052603260045260246000fd5b60008190508160005260206000209050919050565b6000815461157e816114a9565b61158881866114da565b945060018216600081146115a357600181146115b8576115eb565b60ff19831686528115158202860193506115eb565b6115c18561155c565b60005b838110156115e3578154818901526001820191506020810190506115c4565b838801955050505b50505092915050565b60006116008284611571565b915081905092915050565b7f46696c65206e6f7420666f756e64000000000000000000000000000000000000600082015250565b6000611641600e83611271565b915061164c8261160b565b602082019050919050565b6000602082019050818103600083015261167081611634565b9050919050565b7f596f75206172656e277420746865206f776e6572000000000000000000000000600082015250565b60006116ad601483611271565b91506116b882611677565b602082019050919050565b600060208201905081810360008301526116dc816116a0565b9050919050565b7f4e487b7100000000000000000000000000000000000000000000000000000000600052601160045260246000fd5b600061171d82610e44565b915061172883610e44565b92508282039050818111156117405761173f6116e3565b5b92915050565b600061175182610e44565b915061175c83610e44565b9250828201905080821115611774576117736116e3565b5b92915050565b600081549050611789816114a9565b9050919050565b60006020601f8301049050919050565b600082821b905092915050565b6000600883026117dd7fffffffffffffffffffffffffffffffffffffffffffffffffffffffffffffffff826117a0565b6117e786836117a0565b95508019841693508086168417925050509392505050565b6000819050919050565b600061182461181f61181a84610e44565b6117ff565b610e44565b9050919050565b6000819050919050565b61183e83611809565b61185261184a8261182b565b8484546117ad565b825550505050565b600090565b61186761185a565b611872818484611835565b505050565b5b818110156118965761188b60008261185f565b600181019050611878565b5050565b601f8211156118db576118ac8161155c565b6118b584611790565b810160208510156118c4578190505b6118d86118d085611790565b830182611877565b50505b505050565b600082821c905092915050565b60006118fe600019846008026118e0565b1980831691505092915050565b600061191783836118ed565b9150826002028217905092915050565b818103611935575050611a0d565b61193e8261177a565b67ffffffffffffffff81111561195757611956610fc5565b5b61196182546114a9565b61196c82828561189a565b6000601f83116001811461199b5760008415611989578287015490505b611993858261190b565b865550611a06565b601f1984166119a98761155c565b96506119b48661155c565b60005b828110156119dc578489015482556001820191506001850194506020810190506119b7565b868310156119f957848901546119f5601f8916826118ed565b8355505b6001600288020188555050505b5050505050505b565b7f4e487b7100000000000000000000000000000000000000000000000000000000600052603160045260246000fd5b611a4782610db4565b67ffffffffffffffff811115611a6057611a5f610fc5565b5b611a6a82546114a9565b611a7582828561189a565b600060209050601f831160018114611aa85760008415611a96578287015190505b611aa0858261190b565b865550611b08565b601f198416611ab68661155c565b60005b82811015611ade57848901518255600182019150602085019450602081019050611ab9565b86831015611afb5784890151611af7601f8916826118ed565b8355505b6001600288020188555050505b50505050505056fea2646970667358221220b669d9a6e93a2658ca35e1a0cd3de13d3b00570fbcd20e04aa1fb0ea498f500a64736f6c63430008180033",
  "linkReferences": {},
  "deployedLinkReferences": {}
}