{
  "_format": "hh-sol-artifact-1",
  "contractName": "FileMetadataRegistry",
  "sourceName": "contracts/FileMetadataRegistry.sol",
  "abi": [
    {
      "inputs": [],
      "stateMutability": "nonpayable",
      "type": "constructor"
    },
    {
      "anonymous": false,
      "inputs": [
        {
          "indexed": false,
          "internalType": "bytes32",
          "name": "name",
          "type": "bytes32"
        },
        {
          "indexed": true,
          "internalType": "bytes32",
          "name": "checksum",
          "type": "bytes32"
        },
        {
          "indexed": true,
          "internalType": "bytes32",
          "name": "userId",
          "type": "bytes32"
        },
        {
          "indexed": false,
          "internalType": "uint64",
          "name": "timestamp",
          "type": "uint64"
        }
      ],
      "name": "Register",
      "type": "event"
    },
    {
      "inputs": [],
      "name": "owner",
      "outputs": [
        {
          "internalType": "address",
          "name": "",
          "type": "address"
        }
      ],
      "stateMutability": "view",
      "type": "function"
    },
    {
      "inputs": [
        {
          "internalType": "bytes32",
          "name": "name",
          "type": "bytes32"
        },
        {
          "internalType": "bytes32",
          "name": "checksum",
          "type": "bytes32"
        },
        {
          "internalType": "bytes32",
          "name": "userId",
          "type": "bytes32"
        }
      ],
      "name": "register",
      "outputs": [],
      "stateMutability": "nonpayable",
      "type": "function"
    }
  ],
  "bytecode": "0x608060405234801561001057600080fd5b50336000806101000a81548173ffffffffffffffffffffffffffffffffffffffff021916908373ffffffffffffffffffffffffffffffffffffffff16021790555061035f806100606000396000f3fe608060405234801561001057600080fd5b50600436106100365760003560e01c80634da274fd1461003b5780638da5cb5b14610057575b600080fd5b610055600480360381019061005091906101a2565b610075565b005b61005f610143565b60405161006c9190610236565b60405180910390f35b60008054906101000a900473ffffffffffffffffffffffffffffffffffffffff1673ffffffffffffffffffffffffffffffffffffffff163373ffffffffffffffffffffffffffffffffffffffff1614610103576040517f08c379a00000000000000000000000000000000000000000000000000000000081526004016100fa906102ae565b60405180910390fd5b80827fe7f8b641f5ca7e38db06af8ccf9b4e89e32019e2c177ffdcb61d73fd3d79292d8542604051610136929190610300565b60405180910390a3505050565b60008054906101000a900473ffffffffffffffffffffffffffffffffffffffff1681565b600080fd5b6000819050919050565b61017f8161016c565b811461018a57600080fd5b50565b60008135905061019c81610176565b92915050565b6000806000606084860312156101bb576101ba610167565b5b60006101c98682870161018d565b93505060206101da8682870161018d565b92505060406101eb8682870161018d565b9150509250925092565b600073ffffffffffffffffffffffffffffffffffffffff82169050919050565b6000610220826101f5565b9050919050565b61023081610215565b82525050565b600060208201905061024b6000830184610227565b92915050565b600082825260208201905092915050565b7f596f75206172656e277420746865206f776e6572000000000000000000000000600082015250565b6000610298601483610251565b91506102a382610262565b602082019050919050565b600060208201905081810360008301526102c78161028b565b9050919050565b6102d78161016c565b82525050565b600067ffffffffffffffff82169050919050565b6102fa816102dd565b82525050565b600060408201905061031560008301856102ce565b61032260208301846102f1565b939250505056fea2646970667358221220d672c64e7262d99a75155a5953970b66212abfb340935d4edf38855104b2058e64736f6c63430008180033",
  "linkReferences": {},
  "deployedLinkReferences": {}
}